:100000000C945D000C9485000C9485000C94850084
:100010000C9485000C9485000C9485000C9485004C
:100020000C9485000C9485000C9485000C9485003C
:100030000C9485000C9485000C9485000C9485002C
:100040000C9454030C9485000C9422030C94FC0231
:100050000C9485000C9485000C9485000C9485000C
:100060000C9485000C94850000000008000201003B
:100070000003040700000000000000000000000072
:10008000250028002B0000000000240027002A0083
:10009000040404040404040402020202020203032E
:1000A0000303030301020408102040800102040836
:1000B00010200102040810209E0311241FBECFEF60
:1000C000D8E0DEBFCDBF11E0A0E0B1E0E0E2F2E1B8
:1000D00002C005900D92A036B107D9F722E0A0E644
:1000E000B1E001C01D92AE34B207E1F710E0CDE5FA
:1000F000D0E004C02197FE010E940809CC35D10749
:10010000C9F70E9450040C940E090C940000AF92A1
:10011000BF92CF92DF92EF92FF920F931F93CF93F4
:10012000DF936C017B018B01040F151FEB015E0156
:10013000AE18BF08C017D10759F06991D601ED91EB
:10014000FC910190F081E02DC6010995892B79F78A
:10015000C501DF91CF911F910F91FF90EF90DF903C
:10016000CF90BF90AF900895FC01538D448D252F03
:1001700030E0842F90E0821B930B541710F0CF9641
:10018000089501970895FC01918D828D981761F073
:10019000A28DAE0FBF2FB11D5D968C91928D9F5F8A
:1001A0009F73928F90E008958FEF9FEF0895FC0169
:1001B000918D828D981731F0828DE80FF11D858D1C
:1001C00090E008958FEF9FEF0895FC01918D228DAF
:1001D000892F90E0805C9F4F821B91098F73992734
:1001E000089589E691E00E94E50021E0892B09F459
:1001F00020E0822F089580E090E0892B29F00E9472
:10020000F10081110C9400000895FC01A48DA80F49
:10021000B92FB11DA35ABF4F2C91848D90E0019648
:100220008F739927848FA689B7892C93A089B18968
:100230008C91837080648C93938D848D981306C009
:100240000288F389E02D80818F7D80830895EF926D
:10025000FF920F931F93CF93DF93EC0181E0888F80
:100260009B8D8C8D98131AC0E889F989808185FF50
:1002700015C09FB7F894EE89FF896083E889F989F2
:1002800080818370806480839FBF81E090E0DF91F4
:10029000CF911F910F91FF90EF900895F62E0B8D47
:1002A00010E00F5F1F4F0F731127E02E8C8D8E1102
:1002B0000CC00FB607FCFACFE889F989808185FF69
:1002C000F5CFCE010E940501F1CFEB8DEC0FFD2F94
:1002D000F11DE35AFF4FF0829FB7F8940B8FEA8924
:1002E000FB8980818062CFCFCF93DF93EC01888D33
:1002F0008823B9F0AA89BB89E889F9898C9185FDA1
:1003000003C0808186FD0DC00FB607FCF7CF8C912E
:1003100085FFF2CF808185FFEDCFCE010E940501E0
:10032000E9CFDF91CF91089590E0FC01E859FF4FAC
:100330002491FC01EC55FF4F3491FC01E057FF4F35
:10034000E491EE23C9F0222339F0233001F1A8F41F
:10035000213019F1223029F1F0E0EE0FFF1FE458AF
:10036000FF4FA591B4918FB7F894EC91611126C01D
:1003700030953E233C938FBF08952730A9F0283055
:10038000C9F0243049F7809180008F7D03C08091AF
:1003900080008F7780938000DFCF84B58F7784BD16
:1003A000DBCF84B58F7DFBCF8091B0008F778093BA
:1003B000B000D2CF8091B0008F7DF9CF3E2BDACF45
:1003C000CF93DF93DC0111967C936E9313961C926E
:1003D0001E9212971616170634F57727FB01EC5577
:1003E000FF4F849160577F4FFB016491662399F022
:1003F00070E0660F771FFB01EA57FF4FC591D4915C
:10040000FB01E458FF4F259134919FB7F894E881A0
:10041000E82BE8839FBF12966C9112978C91DF9125
:10042000CF910C949401DF91CF9108953FB7F89448
:100430008091650190916601A0916701B09168017A
:1004400026B5A89B05C02F3F19F00196A11DB11D2F
:100450003FBFBA2FA92F982F8827BC01CD01620F6B
:10046000711D811D911D42E0660F771F881F991F26
:100470004A95D1F708958F929F92AF92BF92CF92F3
:10048000DF92EF92FF926B017C010E9416024B01FA
:100490005C01C114D104E104F104B9F00E94160218
:1004A000681979098A099B09683E7340810591059D
:1004B00080F321E0C21AD108E108F10888EE880E25
:1004C00083E0981EA11CB11CE4CFFF90EF90DF9059
:1004D000CF90BF90AF909F908F900895FC01808146
:1004E00091811816190624F4628373830C94940185
:1004F0000895FC0101900020E9F73197AF01481BF6
:10050000590BBC0189E691E00C9487008F929F9271
:10051000AF92BF920F931F93CF93DF93CDB7DEB708
:10052000A1970FB6F894DEBF0FBECDBF19A242301F
:1005300008F44AE08E010F5D1F4F842E912CB12CE0
:10054000A12CA50194010E94E608E62FB901CA0179
:10055000EA30F4F4E05DD801EE938D01232B242BD7
:10056000252B79F790E080E0109719F0CD010E94DB
:100570007902A1960FB6F894DEBF0FBECDBFDF9112
:10058000CF911F910F91BF90AF909F908F90089542
:10059000E95CE1CF0C947902CF92DF92EF92FF9267
:1005A000CF93DF936C01990FEE08FF08F7FE19C097
:1005B0006DE289E691E00E942701EC01662777272A
:1005C000CB016C197D098E099F094AE00E948602C1
:1005D0008C0F9D1FDF91CF91FF90EF90DF90CF9018
:1005E00008954AE0C701B601DF91CF91FF90EF90E7
:1005F000DF90CF900C9486021F920F920FB60F924D
:1006000011242F933F934F935F936F937F938F9317
:100610009F93AF93BF93EF93FF9389E691E00E947E
:100620000501FF91EF91BF91AF919F918F917F91C4
:100630006F915F914F913F912F910F900FBE0F904F
:100640001F9018951F920F920FB60F9211242F939F
:100650008F939F93EF93FF93E0917901F0917A014B
:100660008081E0917F01F091800182FD1BC090812B
:10067000809182018F5F8F7320918301821741F0F7
:10068000E0918201F0E0E759FE4F958F809382015F
:10069000FF91EF919F918F912F910F900FBE0F902F
:1006A0001F9018958081F4CF1F920F920FB60F9272
:1006B00011242F933F938F939F93AF93BF93809178
:1006C000610190916201A0916301B0916401309148
:1006D000600123E0230F2D3758F50196A11DB11DB0
:1006E000209360018093610190936201A093630164
:1006F000B09364018091650190916601A0916701BA
:10070000B09168010196A11DB11D80936501909380
:100710006601A0936701B0936801BF91AF919F916B
:100720008F913F912F910F900FBE0F901F901895B2
:1007300026E8230F0296A11DB11DD2CFE9E6F1E014
:100740001382128288EE93E0A0E0B0E08483958368
:10075000A683B78384E091E09183808385EC90E069
:100760009587848784EC90E09787868780EC90E07B
:10077000918B808B81EC90E0938B828B82EC90E06C
:10078000958B848B86EC90E0978B868B118E128EE6
:10079000138E148E61E070E086E092E00E94E0012A
:1007A00062E070E08CE092E00E94E00163E070E0C3
:1007B00082E192E00E94E00164E070E088E192E072
:1007C0000E94E00165E070E08EE192E00E94E001AD
:1007D00066E070E084E292E00E94E00167E070E091
:1007E0008AE292E00E94E00168E070E080E392E03B
:1007F0000E94E001E6E0F2E084E090E091AB80ABA3
:1008000088EC90E093AB82AB80E293E095AB84AB55
:1008100080E090E0A0EFB1E486AB97ABA0AFB1AFC2
:100820001092440210924502109246021092470222
:1008300086E696E6A6EEBEE382AF93AFA4AFB5AF71
:1008400070E060E082E192E00E946E0261E070E0A0
:1008500088E192E00E946E0270E060E08EE192E03A
:100860000E946E0270E060E086E092E00E946E02FC
:1008700070E060E08CE092E00E946E0270E060E068
:1008800084E292E00E946E0270E060E08AE292E010
:100890000E946E0270E060E080E392E00C946E02D1
:1008A000789484B5826084BD84B5816084BD85B54B
:1008B000826085BD85B5816085BD80916E00816057
:1008C00080936E00109281008091810082608093FD
:1008D00081008091810081608093810080918000FF
:1008E0008160809380008091B10084608093B1002A
:1008F0008091B00081608093B00080917A00846024
:1009000080937A0080917A00826080937A0080914F
:100910007A00816080937A0080917A008068809369
:100920007A001092C100E0917901F0917A0182E0A1
:100930008083E0917501F09176011082E09177015A
:10094000F09178018FEC808310928101E0917D011C
:10095000F0917E0186E08083E0917B01F0917C0143
:10096000808180618083E0917B01F0917C018081B6
:1009700088608083E0917B01F0917C0180818068B8
:100980008083E0917B01F0917C0180818F7D808369
:10099000C0E0D0E020E030E040EA51E46091400265
:1009A0007091410280914202909143020E941C0783
:1009B00020E030E04AE754E40E9474086B017C01B7
:1009C00061E070E084E292E00E946E0270E060E01C
:1009D00084E292E00E946E0270E060E084E292E0C5
:1009E0000E946E0261E070E08AE292E00E946E0274
:1009F00004E010E061E070E08CE092E00E946E02A2
:100A000020914402309145024091460250914702A4
:100A1000C701B6010E9474080E948E070E943B0223
:100A200080914802909149020196909349028093E7
:100A3000480220913A0230913B0297FF04C0309364
:100A40004902209348028091480290914902281758
:100A5000390724F41092490210924802609148022A
:100A600070914902072E000C880B990B0E94BF075A
:100A70002091400230914102409142025091430244
:100A80000E94740860934A0270934B0280934C0258
:100A900090934D0270E060E08CE092E00E946E0264
:100AA0002091440230914502409146025091470204
:100AB00060E070E080E89FE30E94AA06A70196012B
:100AC0000E9474080E948E070E943B020150110987
:100AD00009F090CF70E060E08AE292E00E946E023E
:100AE00082E191E00E94CA028091480290914902FD
:100AF0000E94CC0288E191E00E94CA028AE191E062
:100B00000E94CA02C0904A02D0904B02E0904C0270
:100B1000F0904D02A7019601C701B6010E94E108BD
:100B2000882309F483C081E291E00E94790288E180
:100B300091E00E94CA028DE291E00E94CA02809177
:100B40000802909109020E94CC0288E191E00E9483
:100B5000CA0284E391E00E94CA0280910E02909141
:100B60000F020E94CC0288E191E00E94CA028AE34F
:100B700091E00E94CA0280911402909115020E9495
:100B8000CC0288E191E00E94CA028FE391E00E94CA
:100B9000CA0280911A0290911B020E94CC0288E145
:100BA00091E00E94CA0284E491E00E94CA0280910E
:100BB0002002909121020E94CC0288E191E00E94E3
:100BC000CA0289E491E00E94CA02809126029091B3
:100BD00027020E94CC0288E191E00E94CA028EE4C2
:100BE00091E00E94CA0280912C0290912D020E94F5
:100BF000CC0288E191E00E94CA0286E591E00E9461
:100C0000CA0280913202909133020E94CC028DE59B
:100C100091E00E94CA02209709F4BCCE0E94F10024
:100C2000882309F4B7CE0E940000B4CE46015701D4
:100C3000E894B7F82FEF3FEF4FE75FE7C501B40146
:100C40000E94E10881110DC02FEF3FEF4FE75FE7F2
:100C5000C501B4010E94170718161CF485E291E043
:100C600064CF2FEF3FEF4FE75FE4C701B6010E946B
:100C70006F0818161CF489E291E057CF2FEF3FEF71
:100C80004FE75FECC701B6010E94170787FDF3CF5E
:100C900020E030E0A901C701B6010E94170787FFD5
:100CA00009C06DE289E691E00E942701F7FAF0940D
:100CB000F7F8F0941AE060E070E080E09FE320E055
:100CC00030E040E251E40E941C071150C1F7A70137
:100CD00096010E94AB066B017C010E948E074B01BE
:100CE0005C010E94BD079B01AC01C701B6010E94D7
:100CF000AA066B017C014AE0C501B4010E9486028C
:100D00006EE289E691E00E9427011BE0115009F490
:100D10000ECF20E030E040E251E4C701B6010E946E
:100D200074084B015C010E948E076B01F12CE12CD1
:100D30004AE0C701B6010E948602C701B6010E94BF
:100D4000BD079B01AC01C501B4010E94AA066B015D
:100D50007C01DCCF5058BB27AA270E94C2060C9406
:100D600035080E94270838F00E942E0820F039F438
:100D70009F3F19F426F40C9424080EF4E095E7FB49
:100D80000C941E08E92F0E94460858F3BA17620710
:100D900073078407950720F079F4A6F50C9468088A
:100DA0000EF4E0950B2EBA2FA02D0B01B901900186
:100DB0000C01CA01A0011124FF27591B99F0593FCA
:100DC00050F4503E68F11A16F040A22F232F342F12
:100DD0004427585FF3CF469537952795A795F04060
:100DE0005395C9F77EF41F16BA0B620B730B840B75
:100DF000BAF09150A1F0FF0FBB1F661F771F881F2D
:100E0000C2F70EC0BA0F621F731F841F48F4879584
:100E100077956795B795F7959E3F08F0B0CF939576
:100E2000880F08F09927EE0F9795879508950E94EF
:100E3000FA0708F481E008950E9430070C94350801
:100E40000E942E0858F00E94270840F029F45F3FC6
:100E500029F00C941E0851110C9469080C94240874
:100E60000E94460868F39923B1F3552391F3951B2B
:100E7000550BBB27AA2762177307840738F09F5FBB
:100E80005F4F220F331F441FAA1FA9F335D00E2E28
:100E90003AF0E0E832D091505040E695001CCAF795
:100EA0002BD0FE2F29D0660F771F881FBB1F261758
:100EB00037074807AB07B0E809F0BB0B802DBF012F
:100EC000FF2793585F4F3AF09E3F510578F00C94FE
:100ED0001E080C9469085F3FE4F3983ED4F38695AE
:100EE00077956795B795F7959F5FC9F7880F911D1F
:100EF0009695879597F90895E1E0660F771F881F0B
:100F0000BB1F621773078407BA0720F0621B730BBD
:100F1000840BBA0BEE1F88F7E09508950E944E08E7
:100F200088F09F5798F0B92F9927B751B0F0E1F0AA
:100F3000660F771F881F991F1AF0BA95C9F714C05A
:100F4000B13091F00E946808B1E008950C946808EF
:100F5000672F782F8827B85F39F0B93FCCF3869593
:100F600077956795B395D9F73EF4909580957095F0
:100F700061957F4F8F4F9F4F0895E89409C097FB6D
:100F80003EF490958095709561957F4F8F4F9F4F60
:100F90009923A9F0F92F96E9BB279395F6958795A4
:100FA00077956795B795F111F8CFFAF4BB0F11F467
:100FB00060FF1BC06F5F7F4F8F4F9F4F16C088230E
:100FC00011F096E911C0772321F09EE8872F762F44
:100FD00005C0662371F096E8862F70E060E02AF085
:100FE0009A95660F771F881FDAF7880F9695879571
:100FF00097F90895990F0008550FAA0BE0E8FEEF46
:1010000016161706E807F907C0F012161306E407CC
:10101000F50798F0621B730B840B950B39F40A26C5
:1010200061F0232B242B252B21F408950A2609F4A3
:10103000A140A6958FEF811D811D089597F99F67A7
:1010400080E870E060E008959FEF80EC0895002450
:101050000A941616170618060906089500240A941D
:1010600012161306140605060895092E0394000CA3
:1010700011F4882352F0BB0F40F4BF2B11F460FF32
:1010800004C06F5F7F4F8F4F9F4F089557FD90585B
:10109000440F551F59F05F3F71F04795880F97FB3C
:1010A000991F61F09F3F79F08795089512161306F6
:1010B0001406551FF2CF4695F1DF08C01616170625
:1010C0001806991FF1CF869571056105089408955A
:1010D000E894BB2766277727CB0197F908950E94EC
:1010E000FA0708F48FEF08950E9487080C943508DA
:1010F0000E94270838F00E942E0820F0952311F056
:101100000C941E080C94240811240C9469080E9465
:10111000460870F3959FC1F3950F50E0551F629FED
:10112000F001729FBB27F00DB11D639FAA27F00D40
:10113000B11DAA1F649F6627B00DA11D661F829F67
:101140002227B00DA11D621F739FB00DA11D621F4C
:10115000839FA00D611D221F749F3327A00D611D69
:10116000231F849F600D211D822F762F6A2F11244B
:101170009F5750409AF0F1F088234AF0EE0FFF1F7E
:10118000BB1F661F771F881F91505040A9F79E3FD5
:10119000510580F00C941E080C9469085F3FE4F33D
:1011A000983ED4F3869577956795B795F795E7952B
:1011B0009F5FC1F7FE2B880F911D9695879597F934
:1011C00008950E94FA07880B990B0895A1E21A2E40
:1011D000AA1BBB1BFD010DC0AA1FBB1FEE1FFF1FDB
:1011E000A217B307E407F50720F0A21BB30BE40B2B
:1011F000F50B661F771F881F991F1A9469F7609572
:101200007095809590959B01AC01BD01CF0108952B
:10121000EE0FFF1F0590F491E02D0994F894FFCF95
:101220000000000027018700B4007401E500C3003E
:10123000D700537465703A000900416E676C653AD7
:10124000006E616E00696E66006F766600534C45F5
:1012500045503A00535445503A004D53313A004DF1
:1012600053323A004D53333A004449523A00454E06
:1012700041424C453A0052455345543A000A000059
:00000001FF
